{
  "contractName": "SupplyChain",
  "abi": [
    {
      "inputs": [],
      "payable": false,
      "stateMutability": "nonpayable",
      "type": "constructor"
    },
    {
      "anonymous": false,
      "inputs": [
        {
          "indexed": true,
          "internalType": "uint256",
          "name": "_itemId",
          "type": "uint256"
        }
      ],
      "name": "reserveEvent",
      "type": "event"
    },
    {
      "constant": true,
      "inputs": [],
      "name": "itemCount",
      "outputs": [
        {
          "internalType": "uint256",
          "name": "",
          "type": "uint256"
        }
      ],
      "payable": false,
      "stateMutability": "view",
      "type": "function"
    },
    {
      "constant": true,
      "inputs": [
        {
          "internalType": "uint256",
          "name": "",
          "type": "uint256"
        }
      ],
      "name": "items",
      "outputs": [
        {
          "internalType": "uint256",
          "name": "id",
          "type": "uint256"
        },
        {
          "internalType": "string",
          "name": "item_name",
          "type": "string"
        },
        {
          "internalType": "uint256",
          "name": "quantityInitial",
          "type": "uint256"
        },
        {
          "internalType": "uint256",
          "name": "quantitySold",
          "type": "uint256"
        },
        {
          "internalType": "uint256",
          "name": "quantityInStock",
          "type": "uint256"
        }
      ],
      "payable": false,
      "stateMutability": "view",
      "type": "function"
    },
    {
      "constant": true,
      "inputs": [
        {
          "internalType": "address",
          "name": "",
          "type": "address"
        }
      ],
      "name": "vendors",
      "outputs": [
        {
          "internalType": "uint256",
          "name": "",
          "type": "uint256"
        }
      ],
      "payable": false,
      "stateMutability": "view",
      "type": "function"
    },
    {
      "constant": false,
      "inputs": [
        {
          "internalType": "uint256",
          "name": "_itemId",
          "type": "uint256"
        },
        {
          "internalType": "uint256",
          "name": "_quantityToReserve",
          "type": "uint256"
        }
      ],
      "name": "reserveQuantity",
      "outputs": [],
      "payable": false,
      "stateMutability": "nonpayable",
      "type": "function"
    }
  ],
  "bytecode": "0x608060405234801561001057600080fd5b506100576040518060400160405280600681526020017f4974656d20310000000000000000000000000000000000000000000000000000815250600a6100e860201b60201c565b61009d6040518060400160405280600681526020017f4974656d20320000000000000000000000000000000000000000000000000000815250600a6100e860201b60201c565b6100e36040518060400160405280600681526020017f4974656d20330000000000000000000000000000000000000000000000000000815250600a6100e860201b60201c565b61022a565b6002600081548092919060010191905055506040518060a001604052806002548152602001838152602001828152602001600081526020018281525060016000600254815260200190815260200160002060008201518160000155602082015181600101908051906020019061015f929190610185565b506040820151816002015560608201518160030155608082015181600401559050505050565b828054600181600116156101000203166002900490600052602060002090601f016020900481019282601f106101c657805160ff19168380011785556101f4565b828001600101855582156101f4579182015b828111156101f35782518255916020019190600101906101d8565b5b5090506102019190610205565b5090565b61022791905b8082111561022357600081600090555060010161020b565b5090565b90565b61046e806102396000396000f3fe608060405234801561001057600080fd5b506004361061004c5760003560e01c806327e30c36146100515780634e1f0707146100a95780636bfb0d01146100e1578063bfb231d2146100ff575b600080fd5b6100936004803603602081101561006757600080fd5b81019080803573ffffffffffffffffffffffffffffffffffffffff1690602001909291905050506101c2565b6040518082815260200191505060405180910390f35b6100df600480360360408110156100bf57600080fd5b8101908080359060200190929190803590602001909291905050506101da565b005b6100e9610365565b6040518082815260200191505060405180910390f35b61012b6004803603602081101561011557600080fd5b810190808035906020019092919050505061036b565b6040518086815260200180602001858152602001848152602001838152602001828103825286818151815260200191508051906020019080838360005b83811015610183578082015181840152602081019050610168565b50505050905090810190601f1680156101b05780820380516001836020036101000a031916815260200191505b50965050505050505060405180910390f35b60006020528060005260406000206000915090505481565b60026000803373ffffffffffffffffffffffffffffffffffffffff1673ffffffffffffffffffffffffffffffffffffffff16815260200190815260200160002054111561022657600080fd5b60008211801561023857506002548211155b61024157600080fd5b60016000803373ffffffffffffffffffffffffffffffffffffffff1673ffffffffffffffffffffffffffffffffffffffff16815260200190815260200160002054016000803373ffffffffffffffffffffffffffffffffffffffff1673ffffffffffffffffffffffffffffffffffffffff16815260200190815260200160002081905550600160008381526020019081526020016000206003016000815480929190600101919050555060016000838152602001908152602001600020600301546001600084815260200190815260200160002060020154036001600084815260200190815260200160002060040181905550817fa8b422008561067fe4240d9beaa6d565fea9379d174701244103c366d2f6362b60405160405180910390a25050565b60025481565b6001602052806000526040600020600091509050806000015490806001018054600181600116156101000203166002900480601f01602080910402602001604051908101604052809291908181526020018280546001816001161561010002031660029004801561041d5780601f106103f25761010080835404028352916020019161041d565b820191906000526020600020905b81548152906001019060200180831161040057829003601f168201915b505050505090806002015490806003015490806004015490508556fea265627a7a723158205255d78dc8b4c38ff29c4ecd2564e93fb68af0f82737639fb8f47e168553828964736f6c63430005100032",
  "source": "pragma solidity >=0.4.22 <0.8.0;\n\ncontract SupplyChain {\n    // Model a Item\n     struct Item {\n        uint id;\n        string item_name;\n        uint quantityInitial;\n        uint quantitySold;\n        uint quantityInStock;\n    }\n\n\n     // Store accounts that have voted\n    mapping(address => uint) public vendors;\n\n     // Read/write items\n    mapping(uint => Item) public items;\n\n     // Store item Count\n    uint public itemCount;\n\n      // reserve event\n    event reserveEvent (\n        uint indexed _itemId\n    );\n\n    // Constructor\n    constructor () public {\n        addItem(\"Item 1\",10);\n        addItem(\"Item 2\",10);\n        addItem(\"Item 3\",10);\n    }\n\n    function addItem (string memory _name,uint initialQuantity) private {\n        itemCount ++;\n        items[itemCount] = Item(itemCount, _name, initialQuantity,0,initialQuantity);\n    }\n\n      function reserveQuantity (uint _itemId, uint _quantityToReserve) public {\n     \n         // require that the vendor has ordered max 5 times only\n        require(vendors[msg.sender] <=2);\n\n        // require a valid item\n        require(_itemId > 0 && _itemId <= itemCount);\n\n          // record that vendor has reserved an item\n        vendors[msg.sender] = vendors[msg.sender]+ 1;\n\n\n\n        // update item quantities\n        items[_itemId].quantitySold ++;\n        items[_itemId].quantityInStock = items[_itemId].quantityInitial - items[_itemId].quantitySold ;\n\n        // trigger reserve event\n        emit reserveEvent(_itemId);\n      \n    }\n}",
  "sourcePath": "/Users/sabniss/Desktop/supplychainmanagement/contracts/SupplyChain.sol",
  "compiler": {
    "name": "solc",
    "version": "0.5.16+commit.9c3226ce.Emscripten.clang"
  },
  "schemaVersion": "3.4.3",
  "updatedAt": "2021-10-30T11:50:39.098Z",
  "networkType": "ethereum",
  "devdoc": {
    "methods": {}
  },
  "userdoc": {
    "methods": {}
  }
}